{
  "_format": "hh-sol-artifact-1",
  "contractName": "VotingSystem",
  "sourceName": "contracts/Voting.sol",
  "abi": [
    {
      "inputs": [
        {
          "internalType": "address",
          "name": "_admin",
          "type": "address"
        }
      ],
      "stateMutability": "nonpayable",
      "type": "constructor"
    },
    {
      "anonymous": false,
      "inputs": [
        {
          "indexed": true,
          "internalType": "string",
          "name": "aadharNumber",
          "type": "string"
        },
        {
          "indexed": false,
          "internalType": "uint256",
          "name": "candidateId",
          "type": "uint256"
        }
      ],
      "name": "VoteCasted",
      "type": "event"
    },
    {
      "anonymous": false,
      "inputs": [
        {
          "indexed": false,
          "internalType": "uint256",
          "name": "endTime",
          "type": "uint256"
        }
      ],
      "name": "VotingStarted",
      "type": "event"
    },
    {
      "inputs": [
        {
          "internalType": "string",
          "name": "_name",
          "type": "string"
        },
        {
          "internalType": "string",
          "name": "_gender",
          "type": "string"
        },
        {
          "internalType": "uint256",
          "name": "_age",
          "type": "uint256"
        },
        {
          "internalType": "string",
          "name": "_partyName",
          "type": "string"
        },
        {
          "internalType": "string",
          "name": "_electionType",
          "type": "string"
        }
      ],
      "name": "addCandidate",
      "outputs": [],
      "stateMutability": "nonpayable",
      "type": "function"
    },
    {
      "inputs": [],
      "name": "admin",
      "outputs": [
        {
          "internalType": "address",
          "name": "",
          "type": "address"
        }
      ],
      "stateMutability": "view",
      "type": "function"
    },
    {
      "inputs": [
        {
          "internalType": "uint256",
          "name": "",
          "type": "uint256"
        }
      ],
      "name": "candidates",
      "outputs": [
        {
          "internalType": "string",
          "name": "name",
          "type": "string"
        },
        {
          "internalType": "string",
          "name": "gender",
          "type": "string"
        },
        {
          "internalType": "uint256",
          "name": "age",
          "type": "uint256"
        },
        {
          "internalType": "string",
          "name": "partyName",
          "type": "string"
        },
        {
          "internalType": "string",
          "name": "electionType",
          "type": "string"
        },
        {
          "internalType": "uint256",
          "name": "totalVotes",
          "type": "uint256"
        }
      ],
      "stateMutability": "view",
      "type": "function"
    },
    {
      "inputs": [],
      "name": "candidatesCount",
      "outputs": [
        {
          "internalType": "uint256",
          "name": "",
          "type": "uint256"
        }
      ],
      "stateMutability": "view",
      "type": "function"
    },
    {
      "inputs": [
        {
          "internalType": "uint256",
          "name": "_candidateId",
          "type": "uint256"
        }
      ],
      "name": "deleteCandidate",
      "outputs": [],
      "stateMutability": "nonpayable",
      "type": "function"
    },
    {
      "inputs": [],
      "name": "getAllCandidates",
      "outputs": [
        {
          "components": [
            {
              "internalType": "string",
              "name": "name",
              "type": "string"
            },
            {
              "internalType": "string",
              "name": "gender",
              "type": "string"
            },
            {
              "internalType": "uint256",
              "name": "age",
              "type": "uint256"
            },
            {
              "internalType": "string",
              "name": "partyName",
              "type": "string"
            },
            {
              "internalType": "string",
              "name": "electionType",
              "type": "string"
            },
            {
              "internalType": "uint256",
              "name": "totalVotes",
              "type": "uint256"
            }
          ],
          "internalType": "struct VotingSystem.Candidate[]",
          "name": "",
          "type": "tuple[]"
        }
      ],
      "stateMutability": "view",
      "type": "function"
    },
    {
      "inputs": [
        {
          "internalType": "string",
          "name": "_aadhar",
          "type": "string"
        }
      ],
      "name": "registerVoter",
      "outputs": [],
      "stateMutability": "nonpayable",
      "type": "function"
    },
    {
      "inputs": [
        {
          "internalType": "uint256",
          "name": "_votingDuration",
          "type": "uint256"
        }
      ],
      "name": "startVoting",
      "outputs": [],
      "stateMutability": "nonpayable",
      "type": "function"
    },
    {
      "inputs": [],
      "name": "updateVotingStatus",
      "outputs": [],
      "stateMutability": "nonpayable",
      "type": "function"
    },
    {
      "inputs": [
        {
          "internalType": "string",
          "name": "_aadhar",
          "type": "string"
        },
        {
          "internalType": "uint256",
          "name": "_candidateId",
          "type": "uint256"
        }
      ],
      "name": "vote",
      "outputs": [],
      "stateMutability": "nonpayable",
      "type": "function"
    },
    {
      "inputs": [
        {
          "internalType": "string",
          "name": "",
          "type": "string"
        }
      ],
      "name": "voters",
      "outputs": [
        {
          "internalType": "bool",
          "name": "hasVoted",
          "type": "bool"
        },
        {
          "internalType": "bool",
          "name": "isRegistered",
          "type": "bool"
        }
      ],
      "stateMutability": "view",
      "type": "function"
    },
    {
      "inputs": [],
      "name": "votingEndTime",
      "outputs": [
        {
          "internalType": "uint256",
          "name": "",
          "type": "uint256"
        }
      ],
      "stateMutability": "view",
      "type": "function"
    },
    {
      "inputs": [],
      "name": "votingStarted",
      "outputs": [
        {
          "internalType": "bool",
          "name": "",
          "type": "bool"
        }
      ],
      "stateMutability": "view",
      "type": "function"
    }
  ],
  "bytecode": "0x60806040523480156200001157600080fd5b50604051620020b0380380620020b0833981810160405281019062000037919062000095565b806000806101000a81548173ffffffffffffffffffffffffffffffffffffffff021916908373ffffffffffffffffffffffffffffffffffffffff160217905550506200010f565b6000815190506200008f81620000f5565b92915050565b600060208284031215620000a857600080fd5b6000620000b8848285016200007e565b91505092915050565b6000620000ce82620000d5565b9050919050565b600073ffffffffffffffffffffffffffffffffffffffff82169050919050565b6200010081620000c1565b81146200010c57600080fd5b50565b611f91806200011f6000396000f3fe608060405234801561001057600080fd5b50600436106100cf5760003560e01c806353fa2e641161008c57806383d948b71161006657806383d948b714610204578063a5bda5b314610222578063a63858031461022c578063f851a44014610248576100cf565b806353fa2e641461019b5780636428a486146101cc5780636881cd21146101e8576100cf565b80631e620cd4146100d45780631ea736e0146100f05780632d35a8a21461010e5780632e6997fe1461012c5780633477ee2e1461014a5780633d2f5bda1461017f575b600080fd5b6100ee60048036038101906100e99190611570565b610266565b005b6100f86104b5565b6040516101059190611c00565b60405180910390f35b6101166104bb565b6040516101239190611c00565b60405180910390f35b6101346104c1565b6040516101419190611a1d565b60405180910390f35b610164600480360381019061015f9190611570565b610838565b60405161017696959493929190611a83565b60405180910390f35b61019960048036038101906101949190611570565b610a94565b005b6101b560048036038101906101b09190611404565b610bd0565b6040516101c3929190611a5a565b60405180910390f35b6101e660048036038101906101e19190611404565b610c24565b005b61020260048036038101906101fd9190611445565b610d5e565b005b61020c610ed9565b6040516102199190611a3f565b60405180910390f35b61022a610eec565b005b6102466004803603810190610241919061151c565b610f2c565b005b6102506111bd565b60405161025d9190611a02565b60405180910390f35b60008054906101000a900473ffffffffffffffffffffffffffffffffffffffff1673ffffffffffffffffffffffffffffffffffffffff163373ffffffffffffffffffffffffffffffffffffffff16146102f4576040517f08c379a00000000000000000000000000000000000000000000000000000000081526004016102eb90611b40565b60405180910390fd5b60008111801561030657506003548111155b610345576040517f08c379a000000000000000000000000000000000000000000000000000000000815260040161033c90611be0565b60405180910390fd5b60008190505b60035481101561043157600160006001836103669190611ced565b815260200190815260200160002060016000838152602001908152602001600020600082018160000190805461039b90611e2b565b6103a69291906111e1565b5060018201816001019080546103bb90611e2b565b6103c69291906111e1565b506002820154816002015560038201816003019080546103e590611e2b565b6103f09291906111e1565b50600482018160040190805461040590611e2b565b6104109291906111e1565b5060058201548160050155905050808061042990611e5d565b91505061034b565b5060016000600354815260200190815260200160002060008082016000610458919061126e565b600182016000610468919061126e565b6002820160009055600382016000610480919061126e565b600482016000610490919061126e565b60058201600090555050600360008154809291906104ad90611e01565b919050555050565b60055481565b60035481565b6060600060035467ffffffffffffffff811115610507577f4e487b7100000000000000000000000000000000000000000000000000000000600052604160045260246000fd5b60405190808252806020026020018201604052801561054057816020015b61052d6112ae565b8152602001906001900390816105255790505b5090506000600190505b600354811161083057600160008281526020019081526020016000206040518060c001604052908160008201805461058190611e2b565b80601f01602080910402602001604051908101604052809291908181526020018280546105ad90611e2b565b80156105fa5780601f106105cf576101008083540402835291602001916105fa565b820191906000526020600020905b8154815290600101906020018083116105dd57829003601f168201915b5050505050815260200160018201805461061390611e2b565b80601f016020809104026020016040519081016040528092919081815260200182805461063f90611e2b565b801561068c5780601f106106615761010080835404028352916020019161068c565b820191906000526020600020905b81548152906001019060200180831161066f57829003601f168201915b50505050508152602001600282015481526020016003820180546106af90611e2b565b80601f01602080910402602001604051908101604052809291908181526020018280546106db90611e2b565b80156107285780601f106106fd57610100808354040283529160200191610728565b820191906000526020600020905b81548152906001019060200180831161070b57829003601f168201915b5050505050815260200160048201805461074190611e2b565b80601f016020809104026020016040519081016040528092919081815260200182805461076d90611e2b565b80156107ba5780601f1061078f576101008083540402835291602001916107ba565b820191906000526020600020905b81548152906001019060200180831161079d57829003601f168201915b50505050508152602001600582015481525050826001836107db9190611d43565b81518110610812577f4e487b7100000000000000000000000000000000000000000000000000000000600052603260045260246000fd5b6020026020010181905250808061082890611e5d565b91505061054a565b508091505090565b600160205280600052604060002060009150905080600001805461085b90611e2b565b80601f016020809104026020016040519081016040528092919081815260200182805461088790611e2b565b80156108d45780601f106108a9576101008083540402835291602001916108d4565b820191906000526020600020905b8154815290600101906020018083116108b757829003601f168201915b5050505050908060010180546108e990611e2b565b80601f016020809104026020016040519081016040528092919081815260200182805461091590611e2b565b80156109625780601f1061093757610100808354040283529160200191610962565b820191906000526020600020905b81548152906001019060200180831161094557829003601f168201915b50505050509080600201549080600301805461097d90611e2b565b80601f01602080910402602001604051908101604052809291908181526020018280546109a990611e2b565b80156109f65780601f106109cb576101008083540402835291602001916109f6565b820191906000526020600020905b8154815290600101906020018083116109d957829003601f168201915b505050505090806004018054610a0b90611e2b565b80601f0160208091040260200160405190810160405280929190818152602001828054610a3790611e2b565b8015610a845780601f10610a5957610100808354040283529160200191610a84565b820191906000526020600020905b815481529060010190602001808311610a6757829003601f168201915b5050505050908060050154905086565b60008054906101000a900473ffffffffffffffffffffffffffffffffffffffff1673ffffffffffffffffffffffffffffffffffffffff163373ffffffffffffffffffffffffffffffffffffffff1614610b22576040517f08c379a0000000000000000000000000000000000000000000000000000000008152600401610b1990611b40565b60405180910390fd5b600060035411610b67576040517f08c379a0000000000000000000000000000000000000000000000000000000008152600401610b5e90611b80565b60405180910390fd5b6001600460006101000a81548160ff0219169083151502179055508042610b8e9190611ced565b6005819055507fcf33babc496bb6dc2942b39cb7b75766bbbadf7da50d176ff8c513e991140239600554604051610bc59190611c00565b60405180910390a150565b6002818051602081018201805184825260208301602085012081835280955050505050506000915090508060000160009054906101000a900460ff16908060000160019054906101000a900460ff16905082565b60008054906101000a900473ffffffffffffffffffffffffffffffffffffffff1673ffffffffffffffffffffffffffffffffffffffff163373ffffffffffffffffffffffffffffffffffffffff1614610cb2576040517f08c379a0000000000000000000000000000000000000000000000000000000008152600401610ca990611b40565b60405180910390fd5b600281604051610cc291906119eb565b908152602001604051809103902060000160019054906101000a900460ff1615610d21576040517f08c379a0000000000000000000000000000000000000000000000000000000008152600401610d1890611ba0565b60405180910390fd5b6001600282604051610d3391906119eb565b908152602001604051809103902060000160016101000a81548160ff02191690831515021790555050565b60008054906101000a900473ffffffffffffffffffffffffffffffffffffffff1673ffffffffffffffffffffffffffffffffffffffff163373ffffffffffffffffffffffffffffffffffffffff1614610dec576040517f08c379a0000000000000000000000000000000000000000000000000000000008152600401610de390611b40565b60405180910390fd5b60036000815480929190610dff90611e5d565b91905055506040518060c0016040528086815260200185815260200184815260200183815260200182815260200160008152506001600060035481526020019081526020016000206000820151816000019080519060200190610e639291906112e4565b506020820151816001019080519060200190610e809291906112e4565b50604082015181600201556060820151816003019080519060200190610ea79291906112e4565b506080820151816004019080519060200190610ec49291906112e4565b5060a082015181600501559050505050505050565b600460009054906101000a900460ff1681565b600460009054906101000a900460ff168015610f09575060055442115b15610f2a576000600460006101000a81548160ff0219169083151502179055505b565b600460009054906101000a900460ff16610f7b576040517f08c379a0000000000000000000000000000000000000000000000000000000008152600401610f7290611bc0565b60405180910390fd5b600460009054906101000a900460ff168015610f9957506005544211155b610fd8576040517f08c379a0000000000000000000000000000000000000000000000000000000008152600401610fcf90611b20565b60405180910390fd5b600282604051610fe891906119eb565b908152602001604051809103902060000160019054906101000a900460ff16611046576040517f08c379a000000000000000000000000000000000000000000000000000000000815260040161103d90611b60565b60405180910390fd5b60028260405161105691906119eb565b908152602001604051809103902060000160009054906101000a900460ff16156110b5576040517f08c379a00000000000000000000000000000000000000000000000000000000081526004016110ac90611b00565b60405180910390fd5b6000811180156110c757506003548111155b611106576040517f08c379a00000000000000000000000000000000000000000000000000000000081526004016110fd90611be0565b60405180910390fd5b600160028360405161111891906119eb565b908152602001604051809103902060000160006101000a81548160ff02191690831515021790555060016000828152602001908152602001600020600501600081548092919061116790611e5d565b91905055508160405161117a91906119eb565b60405180910390207ffef5593509c07a56349ed6186376be2d0864f40445c320bd3ea7f81c5e1de00d826040516111b19190611c00565b60405180910390a25050565b60008054906101000a900473ffffffffffffffffffffffffffffffffffffffff1681565b8280546111ed90611e2b565b90600052602060002090601f01602090048101928261120f576000855561125d565b82601f10611220578054855561125d565b8280016001018555821561125d57600052602060002091601f016020900482015b8281111561125c578254825591600101919060010190611241565b5b50905061126a919061136a565b5090565b50805461127a90611e2b565b6000825580601f1061128c57506112ab565b601f0160209004906000526020600020908101906112aa919061136a565b5b50565b6040518060c001604052806060815260200160608152602001600081526020016060815260200160608152602001600081525090565b8280546112f090611e2b565b90600052602060002090601f0160209004810192826113125760008555611359565b82601f1061132b57805160ff1916838001178555611359565b82800160010185558215611359579182015b8281111561135857825182559160200191906001019061133d565b5b509050611366919061136a565b5090565b5b8082111561138357600081600090555060010161136b565b5090565b600061139a61139584611c4c565b611c1b565b9050828152602081018484840111156113b257600080fd5b6113bd848285611dbf565b509392505050565b600082601f8301126113d657600080fd5b81356113e6848260208601611387565b91505092915050565b6000813590506113fe81611f44565b92915050565b60006020828403121561141657600080fd5b600082013567ffffffffffffffff81111561143057600080fd5b61143c848285016113c5565b91505092915050565b600080600080600060a0868803121561145d57600080fd5b600086013567ffffffffffffffff81111561147757600080fd5b611483888289016113c5565b955050602086013567ffffffffffffffff8111156114a057600080fd5b6114ac888289016113c5565b94505060406114bd888289016113ef565b935050606086013567ffffffffffffffff8111156114da57600080fd5b6114e6888289016113c5565b925050608086013567ffffffffffffffff81111561150357600080fd5b61150f888289016113c5565b9150509295509295909350565b6000806040838503121561152f57600080fd5b600083013567ffffffffffffffff81111561154957600080fd5b611555858286016113c5565b9250506020611566858286016113ef565b9150509250929050565b60006020828403121561158257600080fd5b6000611590848285016113ef565b91505092915050565b60006115a5838361192f565b905092915050565b6115b681611d77565b82525050565b60006115c782611c8c565b6115d18185611caf565b9350836020820285016115e385611c7c565b8060005b8581101561161f57848403895281516116008582611599565b945061160b83611ca2565b925060208a019950506001810190506115e7565b50829750879550505050505092915050565b61163a81611d89565b82525050565b600061164b82611c97565b6116558185611cc0565b9350611665818560208601611dce565b61166e81611f33565b840191505092915050565b600061168482611c97565b61168e8185611cd1565b935061169e818560208601611dce565b6116a781611f33565b840191505092915050565b60006116bd82611c97565b6116c78185611ce2565b93506116d7818560208601611dce565b80840191505092915050565b60006116f0601783611cd1565b91507f596f75206861766520616c726561647920766f7465642e0000000000000000006000830152602082019050919050565b6000611730602083611cd1565b91507f566f74696e67206973206e6f742063757272656e746c79206f6e676f696e672e6000830152602082019050919050565b6000611770602383611cd1565b91507f4f6e6c792061646d696e2063616e20706572666f726d2074686973206163746960008301527f6f6e2e00000000000000000000000000000000000000000000000000000000006020830152604082019050919050565b60006117d6601f83611cd1565b91507f596f7520617265206e6f742061207265676973746572656420766f7465722e006000830152602082019050919050565b6000611816602483611cd1565b91507f4e6f2063616e64696461746573207265676973746572656420666f7220766f7460008301527f696e672e000000000000000000000000000000000000000000000000000000006020830152604082019050919050565b600061187c601c83611cd1565b91507f566f74657220697320616c726561647920726567697374657265642e000000006000830152602082019050919050565b60006118bc601b83611cd1565b91507f566f74696e6720686173206e6f742073746172746564207965742e00000000006000830152602082019050919050565b60006118fc601583611cd1565b91507f496e76616c69642063616e6469646174652049442e00000000000000000000006000830152602082019050919050565b600060c083016000830151848203600086015261194c8282611640565b915050602083015184820360208601526119668282611640565b915050604083015161197b60408601826119cd565b50606083015184820360608601526119938282611640565b915050608083015184820360808601526119ad8282611640565b91505060a08301516119c260a08601826119cd565b508091505092915050565b6119d681611db5565b82525050565b6119e581611db5565b82525050565b60006119f782846116b2565b915081905092915050565b6000602082019050611a1760008301846115ad565b92915050565b60006020820190508181036000830152611a3781846115bc565b905092915050565b6000602082019050611a546000830184611631565b92915050565b6000604082019050611a6f6000830185611631565b611a7c6020830184611631565b9392505050565b600060c0820190508181036000830152611a9d8189611679565b90508181036020830152611ab18188611679565b9050611ac060408301876119dc565b8181036060830152611ad28186611679565b90508181036080830152611ae68185611679565b9050611af560a08301846119dc565b979650505050505050565b60006020820190508181036000830152611b19816116e3565b9050919050565b60006020820190508181036000830152611b3981611723565b9050919050565b60006020820190508181036000830152611b5981611763565b9050919050565b60006020820190508181036000830152611b79816117c9565b9050919050565b60006020820190508181036000830152611b9981611809565b9050919050565b60006020820190508181036000830152611bb98161186f565b9050919050565b60006020820190508181036000830152611bd9816118af565b9050919050565b60006020820190508181036000830152611bf9816118ef565b9050919050565b6000602082019050611c1560008301846119dc565b92915050565b6000604051905081810181811067ffffffffffffffff82111715611c4257611c41611f04565b5b8060405250919050565b600067ffffffffffffffff821115611c6757611c66611f04565b5b601f19601f8301169050602081019050919050565b6000819050602082019050919050565b600081519050919050565b600081519050919050565b6000602082019050919050565b600082825260208201905092915050565b600082825260208201905092915050565b600082825260208201905092915050565b600081905092915050565b6000611cf882611db5565b9150611d0383611db5565b9250827fffffffffffffffffffffffffffffffffffffffffffffffffffffffffffffffff03821115611d3857611d37611ea6565b5b828201905092915050565b6000611d4e82611db5565b9150611d5983611db5565b925082821015611d6c57611d6b611ea6565b5b828203905092915050565b6000611d8282611d95565b9050919050565b60008115159050919050565b600073ffffffffffffffffffffffffffffffffffffffff82169050919050565b6000819050919050565b82818337600083830152505050565b60005b83811015611dec578082015181840152602081019050611dd1565b83811115611dfb576000848401525b50505050565b6000611e0c82611db5565b91506000821415611e2057611e1f611ea6565b5b600182039050919050565b60006002820490506001821680611e4357607f821691505b60208210811415611e5757611e56611ed5565b5b50919050565b6000611e6882611db5565b91507fffffffffffffffffffffffffffffffffffffffffffffffffffffffffffffffff821415611e9b57611e9a611ea6565b5b600182019050919050565b7f4e487b7100000000000000000000000000000000000000000000000000000000600052601160045260246000fd5b7f4e487b7100000000000000000000000000000000000000000000000000000000600052602260045260246000fd5b7f4e487b7100000000000000000000000000000000000000000000000000000000600052604160045260246000fd5b6000601f19601f8301169050919050565b611f4d81611db5565b8114611f5857600080fd5b5056fea2646970667358221220b8f2ec836f5a97a145ab20f2b31bf4a7a0261fc7d35af9a16b4d5664d2d157fe64736f6c63430008000033",
  "linkReferences": {},
  "deployedLinkReferences": {}
}