{
  "_format": "hh-sol-artifact-1",
  "contractName": "VotingSystem",
  "sourceName": "contracts/Voting.sol",
  "abi": [
    {
      "inputs": [
        {
          "internalType": "address",
          "name": "_admin",
          "type": "address"
        }
      ],
      "stateMutability": "nonpayable",
      "type": "constructor"
    },
    {
      "anonymous": false,
      "inputs": [
        {
          "indexed": true,
          "internalType": "string",
          "name": "aadharNumber",
          "type": "string"
        },
        {
          "indexed": false,
          "internalType": "uint256",
          "name": "candidateId",
          "type": "uint256"
        }
      ],
      "name": "VoteCasted",
      "type": "event"
    },
    {
      "anonymous": false,
      "inputs": [
        {
          "indexed": false,
          "internalType": "uint256",
          "name": "endTime",
          "type": "uint256"
        }
      ],
      "name": "VotingStarted",
      "type": "event"
    },
    {
      "inputs": [
        {
          "internalType": "string",
          "name": "_name",
          "type": "string"
        },
        {
          "internalType": "string",
          "name": "_gender",
          "type": "string"
        },
        {
          "internalType": "uint256",
          "name": "_age",
          "type": "uint256"
        },
        {
          "internalType": "string",
          "name": "_partyName",
          "type": "string"
        },
        {
          "internalType": "string",
          "name": "_electionType",
          "type": "string"
        }
      ],
      "name": "addCandidate",
      "outputs": [],
      "stateMutability": "nonpayable",
      "type": "function"
    },
    {
      "inputs": [],
      "name": "admin",
      "outputs": [
        {
          "internalType": "address",
          "name": "",
          "type": "address"
        }
      ],
      "stateMutability": "view",
      "type": "function"
    },
    {
      "inputs": [
        {
          "internalType": "uint256",
          "name": "",
          "type": "uint256"
        }
      ],
      "name": "candidates",
      "outputs": [
        {
          "internalType": "string",
          "name": "name",
          "type": "string"
        },
        {
          "internalType": "string",
          "name": "gender",
          "type": "string"
        },
        {
          "internalType": "uint256",
          "name": "age",
          "type": "uint256"
        },
        {
          "internalType": "string",
          "name": "partyName",
          "type": "string"
        },
        {
          "internalType": "string",
          "name": "electionType",
          "type": "string"
        },
        {
          "internalType": "uint256",
          "name": "totalVotes",
          "type": "uint256"
        }
      ],
      "stateMutability": "view",
      "type": "function"
    },
    {
      "inputs": [],
      "name": "candidatesCount",
      "outputs": [
        {
          "internalType": "uint256",
          "name": "",
          "type": "uint256"
        }
      ],
      "stateMutability": "view",
      "type": "function"
    },
    {
      "inputs": [
        {
          "internalType": "uint256",
          "name": "_candidateId",
          "type": "uint256"
        }
      ],
      "name": "deleteCandidate",
      "outputs": [],
      "stateMutability": "nonpayable",
      "type": "function"
    },
    {
      "inputs": [],
      "name": "getAllCandidates",
      "outputs": [
        {
          "components": [
            {
              "internalType": "string",
              "name": "name",
              "type": "string"
            },
            {
              "internalType": "string",
              "name": "gender",
              "type": "string"
            },
            {
              "internalType": "uint256",
              "name": "age",
              "type": "uint256"
            },
            {
              "internalType": "string",
              "name": "partyName",
              "type": "string"
            },
            {
              "internalType": "string",
              "name": "electionType",
              "type": "string"
            },
            {
              "internalType": "uint256",
              "name": "totalVotes",
              "type": "uint256"
            }
          ],
          "internalType": "struct VotingSystem.Candidate[]",
          "name": "",
          "type": "tuple[]"
        }
      ],
      "stateMutability": "view",
      "type": "function"
    },
    {
      "inputs": [
        {
          "internalType": "uint256",
          "name": "_votingDuration",
          "type": "uint256"
        }
      ],
      "name": "startVoting",
      "outputs": [],
      "stateMutability": "nonpayable",
      "type": "function"
    },
    {
      "inputs": [],
      "name": "updateVotingStatus",
      "outputs": [],
      "stateMutability": "nonpayable",
      "type": "function"
    },
    {
      "inputs": [
        {
          "internalType": "string",
          "name": "_aadhar",
          "type": "string"
        },
        {
          "internalType": "uint256",
          "name": "_candidateId",
          "type": "uint256"
        }
      ],
      "name": "vote",
      "outputs": [],
      "stateMutability": "nonpayable",
      "type": "function"
    },
    {
      "inputs": [
        {
          "internalType": "string",
          "name": "",
          "type": "string"
        }
      ],
      "name": "voters",
      "outputs": [
        {
          "internalType": "bool",
          "name": "hasVoted",
          "type": "bool"
        }
      ],
      "stateMutability": "view",
      "type": "function"
    },
    {
      "inputs": [],
      "name": "votingEndTime",
      "outputs": [
        {
          "internalType": "uint256",
          "name": "",
          "type": "uint256"
        }
      ],
      "stateMutability": "view",
      "type": "function"
    },
    {
      "inputs": [],
      "name": "votingStarted",
      "outputs": [
        {
          "internalType": "bool",
          "name": "",
          "type": "bool"
        }
      ],
      "stateMutability": "view",
      "type": "function"
    }
  ],
  "bytecode": "0x60806040523480156200001157600080fd5b5060405162001db338038062001db3833981810160405281019062000037919062000095565b806000806101000a81548173ffffffffffffffffffffffffffffffffffffffff021916908373ffffffffffffffffffffffffffffffffffffffff160217905550506200010f565b6000815190506200008f81620000f5565b92915050565b600060208284031215620000a857600080fd5b6000620000b8848285016200007e565b91505092915050565b6000620000ce82620000d5565b9050919050565b600073ffffffffffffffffffffffffffffffffffffffff82169050919050565b6200010081620000c1565b81146200010c57600080fd5b50565b611c94806200011f6000396000f3fe608060405234801561001057600080fd5b50600436106100b45760003560e01c806353fa2e641161007157806353fa2e64146101805780636881cd21146101b057806383d948b7146101cc578063a5bda5b3146101ea578063a6385803146101f4578063f851a44014610210576100b4565b80631e620cd4146100b95780631ea736e0146100d55780632d35a8a2146100f35780632e6997fe146101115780633477ee2e1461012f5780633d2f5bda14610164575b600080fd5b6100d360048036038101906100ce919061135c565b61022e565b005b6100dd61047d565b6040516100ea9190611903565b60405180910390f35b6100fb610483565b6040516101089190611903565b60405180910390f35b610119610489565b6040516101269190611789565b60405180910390f35b6101496004803603810190610144919061135c565b610800565b60405161015b969594939291906117c6565b60405180910390f35b61017e6004803603810190610179919061135c565b610a5c565b005b61019a600480360381019061019591906111f0565b610b98565b6040516101a791906117ab565b60405180910390f35b6101ca60048036038101906101c59190611231565b610bd9565b005b6101d4610d54565b6040516101e191906117ab565b60405180910390f35b6101f2610d67565b005b61020e60048036038101906102099190611308565b610d84565b005b610218610fa9565b604051610225919061176e565b60405180910390f35b60008054906101000a900473ffffffffffffffffffffffffffffffffffffffff1673ffffffffffffffffffffffffffffffffffffffff163373ffffffffffffffffffffffffffffffffffffffff16146102bc576040517f08c379a00000000000000000000000000000000000000000000000000000000081526004016102b390611883565b60405180910390fd5b6000811180156102ce57506003548111155b61030d576040517f08c379a0000000000000000000000000000000000000000000000000000000008152600401610304906118e3565b60405180910390fd5b60008190505b6003548110156103f9576001600060018361032e91906119f0565b815260200190815260200160002060016000838152602001908152602001600020600082018160000190805461036390611b2e565b61036e929190610fcd565b50600182018160010190805461038390611b2e565b61038e929190610fcd565b506002820154816002015560038201816003019080546103ad90611b2e565b6103b8929190610fcd565b5060048201816004019080546103cd90611b2e565b6103d8929190610fcd565b506005820154816005015590505080806103f190611b60565b915050610313565b5060016000600354815260200190815260200160002060008082016000610420919061105a565b600182016000610430919061105a565b6002820160009055600382016000610448919061105a565b600482016000610458919061105a565b600582016000905550506003600081548092919061047590611b04565b919050555050565b60055481565b60035481565b6060600060035467ffffffffffffffff8111156104cf577f4e487b7100000000000000000000000000000000000000000000000000000000600052604160045260246000fd5b60405190808252806020026020018201604052801561050857816020015b6104f561109a565b8152602001906001900390816104ed5790505b5090506000600190505b60035481116107f857600160008281526020019081526020016000206040518060c001604052908160008201805461054990611b2e565b80601f016020809104026020016040519081016040528092919081815260200182805461057590611b2e565b80156105c25780601f10610597576101008083540402835291602001916105c2565b820191906000526020600020905b8154815290600101906020018083116105a557829003601f168201915b505050505081526020016001820180546105db90611b2e565b80601f016020809104026020016040519081016040528092919081815260200182805461060790611b2e565b80156106545780601f1061062957610100808354040283529160200191610654565b820191906000526020600020905b81548152906001019060200180831161063757829003601f168201915b505050505081526020016002820154815260200160038201805461067790611b2e565b80601f01602080910402602001604051908101604052809291908181526020018280546106a390611b2e565b80156106f05780601f106106c5576101008083540402835291602001916106f0565b820191906000526020600020905b8154815290600101906020018083116106d357829003601f168201915b5050505050815260200160048201805461070990611b2e565b80601f016020809104026020016040519081016040528092919081815260200182805461073590611b2e565b80156107825780601f1061075757610100808354040283529160200191610782565b820191906000526020600020905b81548152906001019060200180831161076557829003601f168201915b50505050508152602001600582015481525050826001836107a39190611a46565b815181106107da577f4e487b7100000000000000000000000000000000000000000000000000000000600052603260045260246000fd5b602002602001018190525080806107f090611b60565b915050610512565b508091505090565b600160205280600052604060002060009150905080600001805461082390611b2e565b80601f016020809104026020016040519081016040528092919081815260200182805461084f90611b2e565b801561089c5780601f106108715761010080835404028352916020019161089c565b820191906000526020600020905b81548152906001019060200180831161087f57829003601f168201915b5050505050908060010180546108b190611b2e565b80601f01602080910402602001604051908101604052809291908181526020018280546108dd90611b2e565b801561092a5780601f106108ff5761010080835404028352916020019161092a565b820191906000526020600020905b81548152906001019060200180831161090d57829003601f168201915b50505050509080600201549080600301805461094590611b2e565b80601f016020809104026020016040519081016040528092919081815260200182805461097190611b2e565b80156109be5780601f10610993576101008083540402835291602001916109be565b820191906000526020600020905b8154815290600101906020018083116109a157829003601f168201915b5050505050908060040180546109d390611b2e565b80601f01602080910402602001604051908101604052809291908181526020018280546109ff90611b2e565b8015610a4c5780601f10610a2157610100808354040283529160200191610a4c565b820191906000526020600020905b815481529060010190602001808311610a2f57829003601f168201915b5050505050908060050154905086565b60008054906101000a900473ffffffffffffffffffffffffffffffffffffffff1673ffffffffffffffffffffffffffffffffffffffff163373ffffffffffffffffffffffffffffffffffffffff1614610aea576040517f08c379a0000000000000000000000000000000000000000000000000000000008152600401610ae190611883565b60405180910390fd5b600060035411610b2f576040517f08c379a0000000000000000000000000000000000000000000000000000000008152600401610b26906118a3565b60405180910390fd5b6001600460006101000a81548160ff0219169083151502179055508042610b5691906119f0565b6005819055507fcf33babc496bb6dc2942b39cb7b75766bbbadf7da50d176ff8c513e991140239600554604051610b8d9190611903565b60405180910390a150565b6002818051602081018201805184825260208301602085012081835280955050505050506000915090508060000160009054906101000a900460ff16905081565b60008054906101000a900473ffffffffffffffffffffffffffffffffffffffff1673ffffffffffffffffffffffffffffffffffffffff163373ffffffffffffffffffffffffffffffffffffffff1614610c67576040517f08c379a0000000000000000000000000000000000000000000000000000000008152600401610c5e90611883565b60405180910390fd5b60036000815480929190610c7a90611b60565b91905055506040518060c0016040528086815260200185815260200184815260200183815260200182815260200160008152506001600060035481526020019081526020016000206000820151816000019080519060200190610cde9291906110d0565b506020820151816001019080519060200190610cfb9291906110d0565b50604082015181600201556060820151816003019080519060200190610d229291906110d0565b506080820151816004019080519060200190610d3f9291906110d0565b5060a082015181600501559050505050505050565b600460009054906101000a900460ff1681565b6000600460006101000a81548160ff021916908315150217905550565b600460009054906101000a900460ff16610dd3576040517f08c379a0000000000000000000000000000000000000000000000000000000008152600401610dca906118c3565b60405180910390fd5b600460009054906101000a900460ff168015610df157506005544211155b610e30576040517f08c379a0000000000000000000000000000000000000000000000000000000008152600401610e2790611863565b60405180910390fd5b81600281604051610e419190611757565b908152602001604051809103902060000160009054906101000a900460ff1615610ea0576040517f08c379a0000000000000000000000000000000000000000000000000000000008152600401610e9790611843565b60405180910390fd5b600082118015610eb257506003548211155b610ef1576040517f08c379a0000000000000000000000000000000000000000000000000000000008152600401610ee8906118e3565b60405180910390fd5b6001600284604051610f039190611757565b908152602001604051809103902060000160006101000a81548160ff021916908315150217905550600160008381526020019081526020016000206005016000815480929190610f5290611b60565b919050555082604051610f659190611757565b60405180910390207ffef5593509c07a56349ed6186376be2d0864f40445c320bd3ea7f81c5e1de00d83604051610f9c9190611903565b60405180910390a2505050565b60008054906101000a900473ffffffffffffffffffffffffffffffffffffffff1681565b828054610fd990611b2e565b90600052602060002090601f016020900481019282610ffb5760008555611049565b82601f1061100c5780548555611049565b8280016001018555821561104957600052602060002091601f016020900482015b8281111561104857825482559160010191906001019061102d565b5b5090506110569190611156565b5090565b50805461106690611b2e565b6000825580601f106110785750611097565b601f0160209004906000526020600020908101906110969190611156565b5b50565b6040518060c001604052806060815260200160608152602001600081526020016060815260200160608152602001600081525090565b8280546110dc90611b2e565b90600052602060002090601f0160209004810192826110fe5760008555611145565b82601f1061111757805160ff1916838001178555611145565b82800160010185558215611145579182015b82811115611144578251825591602001919060010190611129565b5b5090506111529190611156565b5090565b5b8082111561116f576000816000905550600101611157565b5090565b60006111866111818461194f565b61191e565b90508281526020810184848401111561119e57600080fd5b6111a9848285611ac2565b509392505050565b600082601f8301126111c257600080fd5b81356111d2848260208601611173565b91505092915050565b6000813590506111ea81611c47565b92915050565b60006020828403121561120257600080fd5b600082013567ffffffffffffffff81111561121c57600080fd5b611228848285016111b1565b91505092915050565b600080600080600060a0868803121561124957600080fd5b600086013567ffffffffffffffff81111561126357600080fd5b61126f888289016111b1565b955050602086013567ffffffffffffffff81111561128c57600080fd5b611298888289016111b1565b94505060406112a9888289016111db565b935050606086013567ffffffffffffffff8111156112c657600080fd5b6112d2888289016111b1565b925050608086013567ffffffffffffffff8111156112ef57600080fd5b6112fb888289016111b1565b9150509295509295909350565b6000806040838503121561131b57600080fd5b600083013567ffffffffffffffff81111561133557600080fd5b611341858286016111b1565b9250506020611352858286016111db565b9150509250929050565b60006020828403121561136e57600080fd5b600061137c848285016111db565b91505092915050565b6000611391838361169b565b905092915050565b6113a281611a7a565b82525050565b60006113b38261198f565b6113bd81856119b2565b9350836020820285016113cf8561197f565b8060005b8581101561140b57848403895281516113ec8582611385565b94506113f7836119a5565b925060208a019950506001810190506113d3565b50829750879550505050505092915050565b61142681611a8c565b82525050565b60006114378261199a565b61144181856119c3565b9350611451818560208601611ad1565b61145a81611c36565b840191505092915050565b60006114708261199a565b61147a81856119d4565b935061148a818560208601611ad1565b61149381611c36565b840191505092915050565b60006114a98261199a565b6114b381856119e5565b93506114c3818560208601611ad1565b80840191505092915050565b60006114dc6017836119d4565b91507f596f75206861766520616c726561647920766f7465642e0000000000000000006000830152602082019050919050565b600061151c6020836119d4565b91507f566f74696e67206973206e6f742063757272656e746c79206f6e676f696e672e6000830152602082019050919050565b600061155c6023836119d4565b91507f4f6e6c792061646d696e2063616e20706572666f726d2074686973206163746960008301527f6f6e2e00000000000000000000000000000000000000000000000000000000006020830152604082019050919050565b60006115c26024836119d4565b91507f4e6f2063616e64696461746573207265676973746572656420666f7220766f7460008301527f696e672e000000000000000000000000000000000000000000000000000000006020830152604082019050919050565b6000611628601b836119d4565b91507f566f74696e6720686173206e6f742073746172746564207965742e00000000006000830152602082019050919050565b60006116686015836119d4565b91507f496e76616c69642063616e6469646174652049442e00000000000000000000006000830152602082019050919050565b600060c08301600083015184820360008601526116b8828261142c565b915050602083015184820360208601526116d2828261142c565b91505060408301516116e76040860182611739565b50606083015184820360608601526116ff828261142c565b91505060808301518482036080860152611719828261142c565b91505060a083015161172e60a0860182611739565b508091505092915050565b61174281611ab8565b82525050565b61175181611ab8565b82525050565b6000611763828461149e565b915081905092915050565b60006020820190506117836000830184611399565b92915050565b600060208201905081810360008301526117a381846113a8565b905092915050565b60006020820190506117c0600083018461141d565b92915050565b600060c08201905081810360008301526117e08189611465565b905081810360208301526117f48188611465565b90506118036040830187611748565b81810360608301526118158186611465565b905081810360808301526118298185611465565b905061183860a0830184611748565b979650505050505050565b6000602082019050818103600083015261185c816114cf565b9050919050565b6000602082019050818103600083015261187c8161150f565b9050919050565b6000602082019050818103600083015261189c8161154f565b9050919050565b600060208201905081810360008301526118bc816115b5565b9050919050565b600060208201905081810360008301526118dc8161161b565b9050919050565b600060208201905081810360008301526118fc8161165b565b9050919050565b60006020820190506119186000830184611748565b92915050565b6000604051905081810181811067ffffffffffffffff8211171561194557611944611c07565b5b8060405250919050565b600067ffffffffffffffff82111561196a57611969611c07565b5b601f19601f8301169050602081019050919050565b6000819050602082019050919050565b600081519050919050565b600081519050919050565b6000602082019050919050565b600082825260208201905092915050565b600082825260208201905092915050565b600082825260208201905092915050565b600081905092915050565b60006119fb82611ab8565b9150611a0683611ab8565b9250827fffffffffffffffffffffffffffffffffffffffffffffffffffffffffffffffff03821115611a3b57611a3a611ba9565b5b828201905092915050565b6000611a5182611ab8565b9150611a5c83611ab8565b925082821015611a6f57611a6e611ba9565b5b828203905092915050565b6000611a8582611a98565b9050919050565b60008115159050919050565b600073ffffffffffffffffffffffffffffffffffffffff82169050919050565b6000819050919050565b82818337600083830152505050565b60005b83811015611aef578082015181840152602081019050611ad4565b83811115611afe576000848401525b50505050565b6000611b0f82611ab8565b91506000821415611b2357611b22611ba9565b5b600182039050919050565b60006002820490506001821680611b4657607f821691505b60208210811415611b5a57611b59611bd8565b5b50919050565b6000611b6b82611ab8565b91507fffffffffffffffffffffffffffffffffffffffffffffffffffffffffffffffff821415611b9e57611b9d611ba9565b5b600182019050919050565b7f4e487b7100000000000000000000000000000000000000000000000000000000600052601160045260246000fd5b7f4e487b7100000000000000000000000000000000000000000000000000000000600052602260045260246000fd5b7f4e487b7100000000000000000000000000000000000000000000000000000000600052604160045260246000fd5b6000601f19601f8301169050919050565b611c5081611ab8565b8114611c5b57600080fd5b5056fea2646970667358221220fb3ab2b8852ac5c6675edf1e76634c4910a4350d0bcdce5e9fd211a6d64e004764736f6c63430008000033",
  "linkReferences": {},
  "deployedLinkReferences": {}
}